{"abi":[{"type":"constructor","inputs":[{"name":"_router","type":"address","internalType":"address"},{"name":"_factory","type":"address","internalType":"address"},{"name":"_usdt","type":"address","internalType":"address"},{"name":"_dai","type":"address","internalType":"address"}],"stateMutability":"nonpayable"},{"type":"function","name":"DAI","inputs":[],"outputs":[{"name":"","type":"address","internalType":"address"}],"stateMutability":"view"},{"type":"function","name":"LP_TOKEN","inputs":[],"outputs":[{"name":"","type":"address","internalType":"address"}],"stateMutability":"view"},{"type":"function","name":"USDT","inputs":[],"outputs":[{"name":"","type":"address","internalType":"address"}],"stateMutability":"view"},{"type":"function","name":"UniswapFactoryAddress","inputs":[],"outputs":[{"name":"","type":"address","internalType":"address"}],"stateMutability":"view"},{"type":"function","name":"V2Router02Address","inputs":[],"outputs":[{"name":"","type":"address","internalType":"address"}],"stateMutability":"view"},{"type":"function","name":"addLiquidity","inputs":[{"name":"amountIn_","type":"uint256","internalType":"uint256"},{"name":"amountSwap_","type":"uint256","internalType":"uint256"},{"name":"amountOutMin_","type":"uint256","internalType":"uint256"},{"name":"path_","type":"address[]","internalType":"address[]"},{"name":"amountAMin_","type":"uint256","internalType":"uint256"},{"name":"amountBMin_","type":"uint256","internalType":"uint256"},{"name":"deadline_","type":"uint256","internalType":"uint256"}],"outputs":[],"stateMutability":"nonpayable"},{"type":"function","name":"owner","inputs":[],"outputs":[{"name":"","type":"address","internalType":"address"}],"stateMutability":"view"},{"type":"function","name":"removeLiquidity","inputs":[{"name":"liquidityAmount_","type":"uint256","internalType":"uint256"},{"name":"amountAMin_","type":"uint256","internalType":"uint256"},{"name":"amountBMin_","type":"uint256","internalType":"uint256"},{"name":"to_","type":"address","internalType":"address"},{"name":"deadline_","type":"uint256","internalType":"uint256"}],"outputs":[],"stateMutability":"nonpayable"},{"type":"function","name":"renounceOwnership","inputs":[],"outputs":[],"stateMutability":"nonpayable"},{"type":"function","name":"rescueERC20","inputs":[{"name":"token_","type":"address","internalType":"address"},{"name":"amount_","type":"uint256","internalType":"uint256"}],"outputs":[],"stateMutability":"nonpayable"},{"type":"function","name":"swapTokens","inputs":[{"name":"amountIn_","type":"uint256","internalType":"uint256"},{"name":"amountOutMin_","type":"uint256","internalType":"uint256"},{"name":"path_","type":"address[]","internalType":"address[]"},{"name":"to_","type":"address","internalType":"address"},{"name":"deadline_","type":"uint256","internalType":"uint256"}],"outputs":[{"name":"","type":"uint256","internalType":"uint256"}],"stateMutability":"nonpayable"},{"type":"function","name":"transferOwnership","inputs":[{"name":"newOwner","type":"address","internalType":"address"}],"outputs":[],"stateMutability":"nonpayable"},{"type":"function","name":"userLpBalances","inputs":[{"name":"","type":"address","internalType":"address"}],"outputs":[{"name":"","type":"uint256","internalType":"uint256"}],"stateMutability":"view"},{"type":"event","name":"AddLiquidity","inputs":[{"name":"user","type":"address","indexed":true,"internalType":"address"},{"name":"lpTokenAmount","type":"uint256","indexed":false,"internalType":"uint256"}],"anonymous":false},{"type":"event","name":"OwnershipTransferred","inputs":[{"name":"previousOwner","type":"address","indexed":true,"internalType":"address"},{"name":"newOwner","type":"address","indexed":true,"internalType":"address"}],"anonymous":false},{"type":"event","name":"RemoveLiquidity","inputs":[{"name":"user","type":"address","indexed":true,"internalType":"address"},{"name":"lpTokenAmount","type":"uint256","indexed":false,"internalType":"uint256"}],"anonymous":false},{"type":"event","name":"SwapTokens","inputs":[{"name":"tokenIn","type":"address","indexed":true,"internalType":"address"},{"name":"tokenOut","type":"address","indexed":true,"internalType":"address"},{"name":"amountIn","type":"uint256","indexed":false,"internalType":"uint256"},{"name":"amountOut","type":"uint256","indexed":false,"internalType":"uint256"}],"anonymous":false},{"type":"error","name":"InsufficientBalance","inputs":[{"name":"requested","type":"uint256","internalType":"uint256"},{"name":"available","type":"uint256","internalType":"uint256"}]},{"type":"error","name":"OwnableInvalidOwner","inputs":[{"name":"owner","type":"address","internalType":"address"}]},{"type":"error","name":"OwnableUnauthorizedAccount","inputs":[{"name":"account","type":"address","internalType":"address"}]},{"type":"error","name":"ReentrancyGuardReentrantCall","inputs":[]},{"type":"error","name":"SafeERC20FailedOperation","inputs":[{"name":"token","type":"address","internalType":"address"}]}],"bytecode":{"object":"0x610120604052348015610010575f5ffd5b5060405161204a38038061204a83398181016040528101906100329190610362565b3360015f819055505f73ffffffffffffffffffffffffffffffffffffffff168173ffffffffffffffffffffffffffffffffffffffff16036100aa575f6040517f1e4fbdf70000000000000000000000000000000000000000000000000000000081526004016100a191906103d5565b60405180910390fd5b6100b98161024160201b60201c565b508373ffffffffffffffffffffffffffffffffffffffff1660808173ffffffffffffffffffffffffffffffffffffffff16815250508273ffffffffffffffffffffffffffffffffffffffff1660a08173ffffffffffffffffffffffffffffffffffffffff16815250508173ffffffffffffffffffffffffffffffffffffffff1660c08173ffffffffffffffffffffffffffffffffffffffff16815250508073ffffffffffffffffffffffffffffffffffffffff1660e08173ffffffffffffffffffffffffffffffffffffffff16815250508273ffffffffffffffffffffffffffffffffffffffff1663e6a4390583836040518363ffffffff1660e01b81526004016101c59291906103ee565b602060405180830381865afa1580156101e0573d5f5f3e3d5ffd5b505050506040513d601f19601f820116820180604052508101906102049190610415565b73ffffffffffffffffffffffffffffffffffffffff166101008173ffffffffffffffffffffffffffffffffffffffff168152505050505050610440565b5f60015f9054906101000a900473ffffffffffffffffffffffffffffffffffffffff1690508160015f6101000a81548173ffffffffffffffffffffffffffffffffffffffff021916908373ffffffffffffffffffffffffffffffffffffffff1602179055508173ffffffffffffffffffffffffffffffffffffffff168173ffffffffffffffffffffffffffffffffffffffff167f8be0079c531659141344cd1fd0a4f28419497f9722a3daafe3b4186f6b6457e060405160405180910390a35050565b5f5ffd5b5f73ffffffffffffffffffffffffffffffffffffffff82169050919050565b5f61033182610308565b9050919050565b61034181610327565b811461034b575f5ffd5b50565b5f8151905061035c81610338565b92915050565b5f5f5f5f6080858703121561037a57610379610304565b5b5f6103878782880161034e565b94505060206103988782880161034e565b93505060406103a98782880161034e565b92505060606103ba8782880161034e565b91505092959194509250565b6103cf81610327565b82525050565b5f6020820190506103e85f8301846103c6565b92915050565b5f6040820190506104015f8301856103c6565b61040e60208301846103c6565b9392505050565b5f6020828403121561042a57610429610304565b5b5f6104378482850161034e565b91505092915050565b60805160a05160c05160e05161010051611b646104e65f395f81816109850152610af901525f81816103660152818161040a015281816109cd0152610b9c01525f818161026f015281816102fb015281816103e9015281816109a90152610b7b01525f61054e01525f81816102d901528181610344015281816103ad015281816105f901528181610766015281816107d601528181610ad70152610b3f0152611b645ff3fe608060405234801561000f575f5ffd5b50600436106100cd575f3560e01c8063aadce83c1161008a578063c54e44eb11610064578063c54e44eb146101eb578063e0bab4c414610209578063ed856cdc14610227578063f2fde38b14610243576100cd565b8063aadce83c1461017f578063ad2afdae1461019d578063bfd9041b146101cd576100cd565b80631cda0a4f146100d1578063515cb0e1146100ed57806361d090f81461010b578063715018a61461013b5780638cd4426d146101455780638da5cb5b14610161575b5f5ffd5b6100eb60048036038101906100e6919061124a565b61025f565b005b6100f561054c565b6040516101029190611346565b60405180910390f35b61012560048036038101906101209190611389565b610570565b60405161013291906113c3565b60405180910390f35b610143610585565b005b61015f600480360381019061015a91906113dc565b610598565b005b6101696105cf565b6040516101769190611346565b60405180910390f35b6101876105f7565b6040516101949190611346565b60405180910390f35b6101b760048036038101906101b2919061141a565b61061b565b6040516101c491906113c3565b60405180910390f35b6101d5610983565b6040516101e29190611346565b60405180910390f35b6101f36109a7565b6040516102009190611346565b60405180910390f35b6102116109cb565b60405161021e9190611346565b60405180910390f35b610241600480360381019061023c91906114b0565b6109ef565b005b61025d60048036038101906102589190611389565b610c81565b005b610267610d05565b6102b433308a7f000000000000000000000000000000000000000000000000000000000000000073ffffffffffffffffffffffffffffffffffffffff16610d49909392919063ffffffff16565b5f6102c388888888308761061b565b90505f888a6102d29190611554565b905061033f7f0000000000000000000000000000000000000000000000000000000000000000827f000000000000000000000000000000000000000000000000000000000000000073ffffffffffffffffffffffffffffffffffffffff16610dcb9092919063ffffffff16565b6103aa7f0000000000000000000000000000000000000000000000000000000000000000837f000000000000000000000000000000000000000000000000000000000000000073ffffffffffffffffffffffffffffffffffffffff16610dcb9092919063ffffffff16565b5f7f000000000000000000000000000000000000000000000000000000000000000073ffffffffffffffffffffffffffffffffffffffff1663e8e337007f00000000000000000000000000000000000000000000000000000000000000007f000000000000000000000000000000000000000000000000000000000000000085878b8b308c6040518963ffffffff1660e01b8152600401610452989796959493929190611587565b6060604051808303815f875af115801561046e573d5f5f3e3d5ffd5b505050506040513d601f19601f820116820180604052508101906104929190611617565b925050508060025f3373ffffffffffffffffffffffffffffffffffffffff1673ffffffffffffffffffffffffffffffffffffffff1681526020019081526020015f205f8282546104e29190611667565b925050819055503373ffffffffffffffffffffffffffffffffffffffff167fbb37879e252460856212dc4e8c6edf174e473df9423e3a7feccd21f8c28d587a8260405161052f91906113c3565b60405180910390a2505050610542610ed8565b5050505050505050565b7f000000000000000000000000000000000000000000000000000000000000000081565b6002602052805f5260405f205f915090505481565b61058d610ee1565b6105965f610f68565b565b6105a0610ee1565b6105cb33828473ffffffffffffffffffffffffffffffffffffffff1661102b9092919063ffffffff16565b5050565b5f60015f9054906101000a900473ffffffffffffffffffffffffffffffffffffffff16905090565b7f000000000000000000000000000000000000000000000000000000000000000081565b5f610624610d05565b5f85855f8181106106385761063761169a565b5b905060200201602081019061064d9190611389565b73ffffffffffffffffffffffffffffffffffffffff166370a08231336040518263ffffffff1660e01b81526004016106859190611346565b602060405180830381865afa1580156106a0573d5f5f3e3d5ffd5b505050506040513d601f19601f820116820180604052508101906106c491906116c7565b90508781101561070d5787816040517fcf4791810000000000000000000000000000000000000000000000000000000081526004016107049291906116f2565b60405180910390fd5b61076133308a89895f8181106107265761072561169a565b5b905060200201602081019061073b9190611389565b73ffffffffffffffffffffffffffffffffffffffff16610d49909392919063ffffffff16565b6107d37f00000000000000000000000000000000000000000000000000000000000000008988885f8181106107995761079861169a565b5b90506020020160208101906107ae9190611389565b73ffffffffffffffffffffffffffffffffffffffff16610dcb9092919063ffffffff16565b5f7f000000000000000000000000000000000000000000000000000000000000000073ffffffffffffffffffffffffffffffffffffffff166338ed17398a8a8a8a8a8a6040518763ffffffff1660e01b8152600401610837969594939291906117d5565b5f604051808303815f875af1158015610852573d5f5f3e3d5ffd5b505050506040513d5f823e3d601f19601f8201168201806040525081019061087a9190611977565b90505f816001835161088c9190611554565b8151811061089d5761089c61169a565b5b60200260200101519050878760018a8a90506108b99190611554565b8181106108c9576108c861169a565b5b90506020020160208101906108de9190611389565b73ffffffffffffffffffffffffffffffffffffffff1688885f8181106109075761090661169a565b5b905060200201602081019061091c9190611389565b73ffffffffffffffffffffffffffffffffffffffff167f8dfb86999e54ac203a91b7a8882a5b866d915de0b568e6125956fa6416536b218c846040516109639291906116f2565b60405180910390a3809350505050610979610ed8565b9695505050505050565b7f000000000000000000000000000000000000000000000000000000000000000081565b7f000000000000000000000000000000000000000000000000000000000000000081565b7f000000000000000000000000000000000000000000000000000000000000000081565b6109f7610d05565b5f60025f3373ffffffffffffffffffffffffffffffffffffffff1673ffffffffffffffffffffffffffffffffffffffff1681526020019081526020015f2054905085811015610a7f5785816040517fcf479181000000000000000000000000000000000000000000000000000000008152600401610a769291906116f2565b60405180910390fd5b8560025f3373ffffffffffffffffffffffffffffffffffffffff1673ffffffffffffffffffffffffffffffffffffffff1681526020019081526020015f205f828254610acb9190611554565b92505081905550610b3d7f0000000000000000000000000000000000000000000000000000000000000000877f000000000000000000000000000000000000000000000000000000000000000073ffffffffffffffffffffffffffffffffffffffff16610dcb9092919063ffffffff16565b7f000000000000000000000000000000000000000000000000000000000000000073ffffffffffffffffffffffffffffffffffffffff1663baa2abde7f00000000000000000000000000000000000000000000000000000000000000007f000000000000000000000000000000000000000000000000000000000000000089898989896040518863ffffffff1660e01b8152600401610be297969594939291906119be565b60408051808303815f875af1158015610bfd573d5f5f3e3d5ffd5b505050506040513d601f19601f82011682018060405250810190610c219190611a2b565b50503373ffffffffffffffffffffffffffffffffffffffff167fdfdd120ded9b7afc0c23dd5310e93aaa3e1c3b9f75af9b805fab3030842439f287604051610c6991906113c3565b60405180910390a250610c7a610ed8565b5050505050565b610c89610ee1565b5f73ffffffffffffffffffffffffffffffffffffffff168173ffffffffffffffffffffffffffffffffffffffff1603610cf9575f6040517f1e4fbdf7000000000000000000000000000000000000000000000000000000008152600401610cf09190611346565b60405180910390fd5b610d0281610f68565b50565b60025f5403610d40576040517f3ee5aeb500000000000000000000000000000000000000000000000000000000815260040160405180910390fd5b60025f81905550565b610dc5848573ffffffffffffffffffffffffffffffffffffffff166323b872dd868686604051602401610d7e93929190611a69565b604051602081830303815290604052915060e01b6020820180517bffffffffffffffffffffffffffffffffffffffffffffffffffffffff83818316178352505050506110aa565b50505050565b5f8373ffffffffffffffffffffffffffffffffffffffff1663095ea7b38484604051602401610dfb929190611a9e565b604051602081830303815290604052915060e01b6020820180517bffffffffffffffffffffffffffffffffffffffffffffffffffffffff83818316178352505050509050610e498482611145565b610ed257610ec7848573ffffffffffffffffffffffffffffffffffffffff1663095ea7b3865f604051602401610e80929190611b07565b604051602081830303815290604052915060e01b6020820180517bffffffffffffffffffffffffffffffffffffffffffffffffffffffff83818316178352505050506110aa565b610ed184826110aa565b5b50505050565b60015f81905550565b610ee961119e565b73ffffffffffffffffffffffffffffffffffffffff16610f076105cf565b73ffffffffffffffffffffffffffffffffffffffff1614610f6657610f2a61119e565b6040517f118cdaa7000000000000000000000000000000000000000000000000000000008152600401610f5d9190611346565b60405180910390fd5b565b5f60015f9054906101000a900473ffffffffffffffffffffffffffffffffffffffff1690508160015f6101000a81548173ffffffffffffffffffffffffffffffffffffffff021916908373ffffffffffffffffffffffffffffffffffffffff1602179055508173ffffffffffffffffffffffffffffffffffffffff168173ffffffffffffffffffffffffffffffffffffffff167f8be0079c531659141344cd1fd0a4f28419497f9722a3daafe3b4186f6b6457e060405160405180910390a35050565b6110a5838473ffffffffffffffffffffffffffffffffffffffff1663a9059cbb858560405160240161105e929190611a9e565b604051602081830303815290604052915060e01b6020820180517bffffffffffffffffffffffffffffffffffffffffffffffffffffffff83818316178352505050506110aa565b505050565b5f5f60205f8451602086015f885af1806110c9576040513d5f823e3d81fd5b3d92505f519150505f82146110e25760018114156110fd565b5f8473ffffffffffffffffffffffffffffffffffffffff163b145b1561113f57836040517f5274afe70000000000000000000000000000000000000000000000000000000081526004016111369190611346565b60405180910390fd5b50505050565b5f5f5f5f60205f8651602088015f8a5af192503d91505f51905082801561119357505f82146111775760018114611192565b5f8673ffffffffffffffffffffffffffffffffffffffff163b115b5b935050505092915050565b5f33905090565b5f604051905090565b5f5ffd5b5f5ffd5b5f819050919050565b6111c8816111b6565b81146111d2575f5ffd5b50565b5f813590506111e3816111bf565b92915050565b5f5ffd5b5f5ffd5b5f5ffd5b5f5f83601f84011261120a576112096111e9565b5b8235905067ffffffffffffffff811115611227576112266111ed565b5b602083019150836020820283011115611243576112426111f1565b5b9250929050565b5f5f5f5f5f5f5f5f60e0898b031215611266576112656111ae565b5b5f6112738b828c016111d5565b98505060206112848b828c016111d5565b97505060406112958b828c016111d5565b965050606089013567ffffffffffffffff8111156112b6576112b56111b2565b5b6112c28b828c016111f5565b955095505060806112d58b828c016111d5565b93505060a06112e68b828c016111d5565b92505060c06112f78b828c016111d5565b9150509295985092959890939650565b5f73ffffffffffffffffffffffffffffffffffffffff82169050919050565b5f61133082611307565b9050919050565b61134081611326565b82525050565b5f6020820190506113595f830184611337565b92915050565b61136881611326565b8114611372575f5ffd5b50565b5f813590506113838161135f565b92915050565b5f6020828403121561139e5761139d6111ae565b5b5f6113ab84828501611375565b91505092915050565b6113bd816111b6565b82525050565b5f6020820190506113d65f8301846113b4565b92915050565b5f5f604083850312156113f2576113f16111ae565b5b5f6113ff85828601611375565b9250506020611410858286016111d5565b9150509250929050565b5f5f5f5f5f5f60a08789031215611434576114336111ae565b5b5f61144189828a016111d5565b965050602061145289828a016111d5565b955050604087013567ffffffffffffffff811115611473576114726111b2565b5b61147f89828a016111f5565b9450945050606061149289828a01611375565b92505060806114a389828a016111d5565b9150509295509295509295565b5f5f5f5f5f60a086880312156114c9576114c86111ae565b5b5f6114d6888289016111d5565b95505060206114e7888289016111d5565b94505060406114f8888289016111d5565b935050606061150988828901611375565b925050608061151a888289016111d5565b9150509295509295909350565b7f4e487b71000000000000000000000000000000000000000000000000000000005f52601160045260245ffd5b5f61155e826111b6565b9150611569836111b6565b925082820390508181111561158157611580611527565b5b92915050565b5f6101008201905061159b5f83018b611337565b6115a8602083018a611337565b6115b560408301896113b4565b6115c260608301886113b4565b6115cf60808301876113b4565b6115dc60a08301866113b4565b6115e960c0830185611337565b6115f660e08301846113b4565b9998505050505050505050565b5f81519050611611816111bf565b92915050565b5f5f5f6060848603121561162e5761162d6111ae565b5b5f61163b86828701611603565b935050602061164c86828701611603565b925050604061165d86828701611603565b9150509250925092565b5f611671826111b6565b915061167c836111b6565b925082820190508082111561169457611693611527565b5b92915050565b7f4e487b71000000000000000000000000000000000000000000000000000000005f52603260045260245ffd5b5f602082840312156116dc576116db6111ae565b5b5f6116e984828501611603565b91505092915050565b5f6040820190506117055f8301856113b4565b61171260208301846113b4565b9392505050565b5f82825260208201905092915050565b5f819050919050565b61173b81611326565b82525050565b5f61174c8383611732565b60208301905092915050565b5f6117666020840184611375565b905092915050565b5f602082019050919050565b5f6117858385611719565b935061179082611729565b805f5b858110156117c8576117a58284611758565b6117af8882611741565b97506117ba8361176e565b925050600181019050611793565b5085925050509392505050565b5f60a0820190506117e85f8301896113b4565b6117f560208301886113b4565b818103604083015261180881868861177a565b90506118176060830185611337565b61182460808301846113b4565b979650505050505050565b5f601f19601f8301169050919050565b7f4e487b71000000000000000000000000000000000000000000000000000000005f52604160045260245ffd5b6118758261182f565b810181811067ffffffffffffffff821117156118945761189361183f565b5b80604052505050565b5f6118a66111a5565b90506118b2828261186c565b919050565b5f67ffffffffffffffff8211156118d1576118d061183f565b5b602082029050602081019050919050565b5f6118f46118ef846118b7565b61189d565b90508083825260208201905060208402830185811115611917576119166111f1565b5b835b81811015611940578061192c8882611603565b845260208401935050602081019050611919565b5050509392505050565b5f82601f83011261195e5761195d6111e9565b5b815161196e8482602086016118e2565b91505092915050565b5f6020828403121561198c5761198b6111ae565b5b5f82015167ffffffffffffffff8111156119a9576119a86111b2565b5b6119b58482850161194a565b91505092915050565b5f60e0820190506119d15f83018a611337565b6119de6020830189611337565b6119eb60408301886113b4565b6119f860608301876113b4565b611a0560808301866113b4565b611a1260a0830185611337565b611a1f60c08301846113b4565b98975050505050505050565b5f5f60408385031215611a4157611a406111ae565b5b5f611a4e85828601611603565b9250506020611a5f85828601611603565b9150509250929050565b5f606082019050611a7c5f830186611337565b611a896020830185611337565b611a9660408301846113b4565b949350505050565b5f604082019050611ab15f830185611337565b611abe60208301846113b4565b9392505050565b5f819050919050565b5f819050919050565b5f611af1611aec611ae784611ac5565b611ace565b6111b6565b9050919050565b611b0181611ad7565b82525050565b5f604082019050611b1a5f830185611337565b611b276020830184611af8565b939250505056fea2646970667358221220770e26dbd72cb537a04e1794537a4e1034bc124d96f76fe8451b7d52217bbb3c64736f6c63430008230033","linkReferences":{}},"methodIdentifiers":{"DAI()":"e0bab4c4","LP_TOKEN()":"bfd9041b","USDT()":"c54e44eb","UniswapFactoryAddress()":"515cb0e1","V2Router02Address()":"aadce83c","addLiquidity(uint256,uint256,uint256,address[],uint256,uint256,uint256)":"1cda0a4f","owner()":"8da5cb5b","removeLiquidity(uint256,uint256,uint256,address,uint256)":"ed856cdc","renounceOwnership()":"715018a6","rescueERC20(address,uint256)":"8cd4426d","swapTokens(uint256,uint256,address[],address,uint256)":"ad2afdae","transferOwnership(address)":"f2fde38b","userLpBalances(address)":"61d090f8"},"id":27}