{"abi":[{"type":"constructor","inputs":[{"name":"V2Router02Address_","type":"address","internalType":"address"},{"name":"UniswapFactoryAddress_","type":"address","internalType":"address"},{"name":"USDT_","type":"address","internalType":"address"},{"name":"DAI_","type":"address","internalType":"address"}],"stateMutability":"nonpayable"},{"type":"function","name":"DAI","inputs":[],"outputs":[{"name":"","type":"address","internalType":"address"}],"stateMutability":"view"},{"type":"function","name":"USDT","inputs":[],"outputs":[{"name":"","type":"address","internalType":"address"}],"stateMutability":"view"},{"type":"function","name":"UniswapFactoryAddress","inputs":[],"outputs":[{"name":"","type":"address","internalType":"address"}],"stateMutability":"view"},{"type":"function","name":"V2Router02Address","inputs":[],"outputs":[{"name":"","type":"address","internalType":"address"}],"stateMutability":"view"},{"type":"function","name":"addLiquidity","inputs":[{"name":"amountIn_","type":"uint256","internalType":"uint256"},{"name":"amountOutMin_","type":"uint256","internalType":"uint256"},{"name":"path_","type":"address[]","internalType":"address[]"},{"name":"amountAMin_","type":"uint256","internalType":"uint256"},{"name":"amountBMin_","type":"uint256","internalType":"uint256"},{"name":"deadline_","type":"uint256","internalType":"uint256"}],"outputs":[],"stateMutability":"nonpayable"},{"type":"function","name":"removeLiquidity","inputs":[{"name":"liquidityAmount_","type":"uint256","internalType":"uint256"},{"name":"amountAMin_","type":"uint256","internalType":"uint256"},{"name":"amountBMin_","type":"uint256","internalType":"uint256"},{"name":"to_","type":"address","internalType":"address"},{"name":"deadline_","type":"uint256","internalType":"uint256"}],"outputs":[],"stateMutability":"nonpayable"},{"type":"function","name":"swapTokens","inputs":[{"name":"amountIn_","type":"uint256","internalType":"uint256"},{"name":"amountOutMin_","type":"uint256","internalType":"uint256"},{"name":"path_","type":"address[]","internalType":"address[]"},{"name":"to_","type":"address","internalType":"address"},{"name":"deadline_","type":"uint256","internalType":"uint256"}],"outputs":[{"name":"","type":"uint256","internalType":"uint256"}],"stateMutability":"nonpayable"},{"type":"event","name":"AddLiquidity","inputs":[{"name":"token0","type":"address","indexed":false,"internalType":"address"},{"name":"token1","type":"address","indexed":false,"internalType":"address"},{"name":"lpTokenAmount","type":"uint256","indexed":false,"internalType":"uint256"}],"anonymous":false},{"type":"event","name":"SwapTokens","inputs":[{"name":"tokenIn","type":"address","indexed":false,"internalType":"address"},{"name":"tokenOut","type":"address","indexed":false,"internalType":"address"},{"name":"amountIn","type":"uint256","indexed":false,"internalType":"uint256"},{"name":"amountOut","type":"uint256","indexed":false,"internalType":"uint256"}],"anonymous":false},{"type":"error","name":"SafeERC20FailedOperation","inputs":[{"name":"token","type":"address","internalType":"address"}]}],"bytecode":{"object":"0x608060405234801562000010575f80fd5b50604051620017a4380380620017a48339818101604052810190620000369190620001a4565b835f806101000a81548173ffffffffffffffffffffffffffffffffffffffff021916908373ffffffffffffffffffffffffffffffffffffffff1602179055508260015f6101000a81548173ffffffffffffffffffffffffffffffffffffffff021916908373ffffffffffffffffffffffffffffffffffffffff1602179055508160025f6101000a81548173ffffffffffffffffffffffffffffffffffffffff021916908373ffffffffffffffffffffffffffffffffffffffff1602179055508060035f6101000a81548173ffffffffffffffffffffffffffffffffffffffff021916908373ffffffffffffffffffffffffffffffffffffffff1602179055505050505062000213565b5f80fd5b5f73ffffffffffffffffffffffffffffffffffffffff82169050919050565b5f6200016e8262000143565b9050919050565b620001808162000162565b81146200018b575f80fd5b50565b5f815190506200019e8162000175565b92915050565b5f805f8060808587031215620001bf57620001be6200013f565b5b5f620001ce878288016200018e565b9450506020620001e1878288016200018e565b9350506040620001f4878288016200018e565b925050606062000207878288016200018e565b91505092959194509250565b61158380620002215f395ff3fe608060405234801561000f575f80fd5b506004361061007b575f3560e01c8063b4fcaeac11610059578063b4fcaeac146100eb578063c54e44eb14610107578063e0bab4c414610125578063ed856cdc146101435761007b565b8063515cb0e11461007f578063aadce83c1461009d578063ad2afdae146100bb575b5f80fd5b61008761015f565b6040516100949190610baf565b60405180910390f35b6100a5610184565b6040516100b29190610baf565b60405180910390f35b6100d560048036038101906100d09190610d86565b6101a7565b6040516100e29190610e28565b60405180910390f35b61010560048036038101906101009190610e41565b610424565b005b61010f61079f565b60405161011c9190610baf565b60405180910390f35b61012d6107c4565b60405161013a9190610baf565b60405180910390f35b61015d60048036038101906101589190610ee6565b6107e9565b005b60015f9054906101000a900473ffffffffffffffffffffffffffffffffffffffff1681565b5f8054906101000a900473ffffffffffffffffffffffffffffffffffffffff1681565b5f6101ef333088875f815181106101c1576101c0610f5d565b5b602002602001015173ffffffffffffffffffffffffffffffffffffffff16610a53909392919063ffffffff16565b835f8151811061020257610201610f5d565b5b602002602001015173ffffffffffffffffffffffffffffffffffffffff1663095ea7b35f8054906101000a900473ffffffffffffffffffffffffffffffffffffffff16886040518363ffffffff1660e01b8152600401610263929190610f8a565b6020604051808303815f875af115801561027f573d5f803e3d5ffd5b505050506040513d601f19601f820116820180604052508101906102a39190610fe6565b505f805f9054906101000a900473ffffffffffffffffffffffffffffffffffffffff1673ffffffffffffffffffffffffffffffffffffffff166338ed173988888888886040518663ffffffff1660e01b81526004016103069594939291906110c8565b5f604051808303815f875af1158015610321573d5f803e3d5ffd5b505050506040513d5f823e3d601f19601f8201168201806040525081019061034991906111f4565b90507f8dfb86999e54ac203a91b7a8882a5b866d915de0b568e6125956fa6416536b21855f8151811061037f5761037e610f5d565b5b602002602001015186600188516103969190611268565b815181106103a7576103a6610f5d565b5b60200260200101518984600186516103bf9190611268565b815181106103d0576103cf610f5d565b5b60200260200101516040516103e8949392919061129b565b60405180910390a180600182516103ff9190611268565b815181106104105761040f610f5d565b5b602002602001015191505095945050505050565b61047e3330600289610436919061130b565b60025f9054906101000a900473ffffffffffffffffffffffffffffffffffffffff1673ffffffffffffffffffffffffffffffffffffffff16610a53909392919063ffffffff16565b5f61049860028861048f919061130b565b878730866101a7565b905060025f9054906101000a900473ffffffffffffffffffffffffffffffffffffffff1673ffffffffffffffffffffffffffffffffffffffff1663095ea7b35f8054906101000a900473ffffffffffffffffffffffffffffffffffffffff1660028a610504919061130b565b6040518363ffffffff1660e01b8152600401610521929190610f8a565b6020604051808303815f875af115801561053d573d5f803e3d5ffd5b505050506040513d601f19601f820116820180604052508101906105619190610fe6565b5060035f9054906101000a900473ffffffffffffffffffffffffffffffffffffffff1673ffffffffffffffffffffffffffffffffffffffff1663095ea7b35f8054906101000a900473ffffffffffffffffffffffffffffffffffffffff16836040518363ffffffff1660e01b81526004016105dd929190610f8a565b6020604051808303815f875af11580156105f9573d5f803e3d5ffd5b505050506040513d601f19601f8201168201806040525081019061061d9190610fe6565b505f805f9054906101000a900473ffffffffffffffffffffffffffffffffffffffff1673ffffffffffffffffffffffffffffffffffffffff1663e8e3370060025f9054906101000a900473ffffffffffffffffffffffffffffffffffffffff1660035f9054906101000a900473ffffffffffffffffffffffffffffffffffffffff1660028c6106ac919061130b565b868a8a338b6040518963ffffffff1660e01b81526004016106d498979695949392919061133b565b6060604051808303815f875af11580156106f0573d5f803e3d5ffd5b505050506040513d601f19601f8201168201806040525081019061071491906113b7565b925050507f668256213e6a9a0247adc238fcbf44cc6b98921642fca93479c5dc387366083760025f9054906101000a900473ffffffffffffffffffffffffffffffffffffffff1660035f9054906101000a900473ffffffffffffffffffffffffffffffffffffffff168360405161078d93929190611407565b60405180910390a15050505050505050565b60025f9054906101000a900473ffffffffffffffffffffffffffffffffffffffff1681565b60035f9054906101000a900473ffffffffffffffffffffffffffffffffffffffff1681565b5f60015f9054906101000a900473ffffffffffffffffffffffffffffffffffffffff1673ffffffffffffffffffffffffffffffffffffffff1663e6a4390560025f9054906101000a900473ffffffffffffffffffffffffffffffffffffffff1660035f9054906101000a900473ffffffffffffffffffffffffffffffffffffffff166040518363ffffffff1660e01b815260040161088892919061143c565b602060405180830381865afa1580156108a3573d5f803e3d5ffd5b505050506040513d601f19601f820116820180604052508101906108c79190611477565b90508073ffffffffffffffffffffffffffffffffffffffff1663095ea7b35f8054906101000a900473ffffffffffffffffffffffffffffffffffffffff16886040518363ffffffff1660e01b8152600401610923929190610f8a565b6020604051808303815f875af115801561093f573d5f803e3d5ffd5b505050506040513d601f19601f820116820180604052508101906109639190610fe6565b505f8054906101000a900473ffffffffffffffffffffffffffffffffffffffff1673ffffffffffffffffffffffffffffffffffffffff1663baa2abde60025f9054906101000a900473ffffffffffffffffffffffffffffffffffffffff1660035f9054906101000a900473ffffffffffffffffffffffffffffffffffffffff1689898989896040518863ffffffff1660e01b8152600401610a0a97969594939291906114a2565b60408051808303815f875af1158015610a25573d5f803e3d5ffd5b505050506040513d601f19601f82011682018060405250810190610a49919061150f565b5050505050505050565b610acf848573ffffffffffffffffffffffffffffffffffffffff166323b872dd868686604051602401610a8893929190611407565b604051602081830303815290604052915060e01b6020820180517bffffffffffffffffffffffffffffffffffffffffffffffffffffffff8381831617835250505050610ad5565b50505050565b5f8060205f8451602086015f885af180610af4576040513d5f823e3d81fd5b3d92505f519150505f8214610b0d576001811415610b28565b5f8473ffffffffffffffffffffffffffffffffffffffff163b145b15610b6a57836040517f5274afe7000000000000000000000000000000000000000000000000000000008152600401610b619190610baf565b60405180910390fd5b50505050565b5f73ffffffffffffffffffffffffffffffffffffffff82169050919050565b5f610b9982610b70565b9050919050565b610ba981610b8f565b82525050565b5f602082019050610bc25f830184610ba0565b92915050565b5f604051905090565b5f80fd5b5f80fd5b5f819050919050565b610beb81610bd9565b8114610bf5575f80fd5b50565b5f81359050610c0681610be2565b92915050565b5f80fd5b5f601f19601f8301169050919050565b7f4e487b71000000000000000000000000000000000000000000000000000000005f52604160045260245ffd5b610c5682610c10565b810181811067ffffffffffffffff82111715610c7557610c74610c20565b5b80604052505050565b5f610c87610bc8565b9050610c938282610c4d565b919050565b5f67ffffffffffffffff821115610cb257610cb1610c20565b5b602082029050602081019050919050565b5f80fd5b610cd081610b8f565b8114610cda575f80fd5b50565b5f81359050610ceb81610cc7565b92915050565b5f610d03610cfe84610c98565b610c7e565b90508083825260208201905060208402830185811115610d2657610d25610cc3565b5b835b81811015610d4f5780610d3b8882610cdd565b845260208401935050602081019050610d28565b5050509392505050565b5f82601f830112610d6d57610d6c610c0c565b5b8135610d7d848260208601610cf1565b91505092915050565b5f805f805f60a08688031215610d9f57610d9e610bd1565b5b5f610dac88828901610bf8565b9550506020610dbd88828901610bf8565b945050604086013567ffffffffffffffff811115610dde57610ddd610bd5565b5b610dea88828901610d59565b9350506060610dfb88828901610cdd565b9250506080610e0c88828901610bf8565b9150509295509295909350565b610e2281610bd9565b82525050565b5f602082019050610e3b5f830184610e19565b92915050565b5f805f805f8060c08789031215610e5b57610e5a610bd1565b5b5f610e6889828a01610bf8565b9650506020610e7989828a01610bf8565b955050604087013567ffffffffffffffff811115610e9a57610e99610bd5565b5b610ea689828a01610d59565b9450506060610eb789828a01610bf8565b9350506080610ec889828a01610bf8565b92505060a0610ed989828a01610bf8565b9150509295509295509295565b5f805f805f60a08688031215610eff57610efe610bd1565b5b5f610f0c88828901610bf8565b9550506020610f1d88828901610bf8565b9450506040610f2e88828901610bf8565b9350506060610f3f88828901610cdd565b9250506080610f5088828901610bf8565b9150509295509295909350565b7f4e487b71000000000000000000000000000000000000000000000000000000005f52603260045260245ffd5b5f604082019050610f9d5f830185610ba0565b610faa6020830184610e19565b9392505050565b5f8115159050919050565b610fc581610fb1565b8114610fcf575f80fd5b50565b5f81519050610fe081610fbc565b92915050565b5f60208284031215610ffb57610ffa610bd1565b5b5f61100884828501610fd2565b91505092915050565b5f81519050919050565b5f82825260208201905092915050565b5f819050602082019050919050565b61104381610b8f565b82525050565b5f611054838361103a565b60208301905092915050565b5f602082019050919050565b5f61107682611011565b611080818561101b565b935061108b8361102b565b805f5b838110156110bb5781516110a28882611049565b97506110ad83611060565b92505060018101905061108e565b5085935050505092915050565b5f60a0820190506110db5f830188610e19565b6110e86020830187610e19565b81810360408301526110fa818661106c565b90506111096060830185610ba0565b6111166080830184610e19565b9695505050505050565b5f67ffffffffffffffff82111561113a57611139610c20565b5b602082029050602081019050919050565b5f8151905061115981610be2565b92915050565b5f61117161116c84611120565b610c7e565b9050808382526020820190506020840283018581111561119457611193610cc3565b5b835b818110156111bd57806111a9888261114b565b845260208401935050602081019050611196565b5050509392505050565b5f82601f8301126111db576111da610c0c565b5b81516111eb84826020860161115f565b91505092915050565b5f6020828403121561120957611208610bd1565b5b5f82015167ffffffffffffffff81111561122657611225610bd5565b5b611232848285016111c7565b91505092915050565b7f4e487b71000000000000000000000000000000000000000000000000000000005f52601160045260245ffd5b5f61127282610bd9565b915061127d83610bd9565b92508282039050818111156112955761129461123b565b5b92915050565b5f6080820190506112ae5f830187610ba0565b6112bb6020830186610ba0565b6112c86040830185610e19565b6112d56060830184610e19565b95945050505050565b7f4e487b71000000000000000000000000000000000000000000000000000000005f52601260045260245ffd5b5f61131582610bd9565b915061132083610bd9565b9250826113305761132f6112de565b5b828204905092915050565b5f6101008201905061134f5f83018b610ba0565b61135c602083018a610ba0565b6113696040830189610e19565b6113766060830188610e19565b6113836080830187610e19565b61139060a0830186610e19565b61139d60c0830185610ba0565b6113aa60e0830184610e19565b9998505050505050505050565b5f805f606084860312156113ce576113cd610bd1565b5b5f6113db8682870161114b565b93505060206113ec8682870161114b565b92505060406113fd8682870161114b565b9150509250925092565b5f60608201905061141a5f830186610ba0565b6114276020830185610ba0565b6114346040830184610e19565b949350505050565b5f60408201905061144f5f830185610ba0565b61145c6020830184610ba0565b9392505050565b5f8151905061147181610cc7565b92915050565b5f6020828403121561148c5761148b610bd1565b5b5f61149984828501611463565b91505092915050565b5f60e0820190506114b55f83018a610ba0565b6114c26020830189610ba0565b6114cf6040830188610e19565b6114dc6060830187610e19565b6114e96080830186610e19565b6114f660a0830185610ba0565b61150360c0830184610e19565b98975050505050505050565b5f806040838503121561152557611524610bd1565b5b5f6115328582860161114b565b92505060206115438582860161114b565b915050925092905056fea2646970667358221220d97cd5eb407d8307168a4b3959e7e1e8ea8e88d9fc74d5afa80b69af9fbeaae164736f6c63430008180033","linkReferences":{}},"methodIdentifiers":{"DAI()":"e0bab4c4","USDT()":"c54e44eb","UniswapFactoryAddress()":"515cb0e1","V2Router02Address()":"aadce83c","addLiquidity(uint256,uint256,address[],uint256,uint256,uint256)":"b4fcaeac","removeLiquidity(uint256,uint256,uint256,address,uint256)":"ed856cdc","swapTokens(uint256,uint256,address[],address,uint256)":"ad2afdae"},"id":24}